{
	"contracts/Balancelou.sol": {
		"Balance": {
			"abi": [
				{
					"inputs": [
						{
							"internalType": "address",
							"name": "",
							"type": "address"
						}
					],
					"name": "balances",
					"outputs": [
						{
							"internalType": "uint256",
							"name": "",
							"type": "uint256"
						}
					],
					"stateMutability": "view",
					"type": "function"
				},
				{
					"inputs": [],
					"name": "deposit",
					"outputs": [],
					"stateMutability": "payable",
					"type": "function"
				},
				{
					"inputs": [],
					"name": "getContractBalance",
					"outputs": [
						{
							"internalType": "uint256",
							"name": "",
							"type": "uint256"
						}
					],
					"stateMutability": "view",
					"type": "function"
				},
				{
					"inputs": [
						{
							"internalType": "uint256",
							"name": "_amount",
							"type": "uint256"
						}
					],
					"name": "withdraw",
					"outputs": [],
					"stateMutability": "nonpayable",
					"type": "function"
				}
			],
			"devdoc": {
				"kind": "dev",
				"methods": {},
				"version": 1
			},
			"evm": {
				"assembly": "    /* \"contracts/Balancelou.sol\":60:745  contract Balance {... */\n  mstore(0x40, 0x80)\n  callvalue\n  dup1\n  iszero\n  tag_1\n  jumpi\n  0x00\n  dup1\n  revert\ntag_1:\n  pop\n  dataSize(sub_0)\n  dup1\n  dataOffset(sub_0)\n  0x00\n  codecopy\n  0x00\n  return\nstop\n\nsub_0: assembly {\n        /* \"contracts/Balancelou.sol\":60:745  contract Balance {... */\n      mstore(0x40, 0x80)\n      jumpi(tag_1, lt(calldatasize, 0x04))\n      shr(0xe0, calldataload(0x00))\n      dup1\n      0x27e235e3\n      eq\n      tag_2\n      jumpi\n      dup1\n      0x2e1a7d4d\n      eq\n      tag_3\n      jumpi\n      dup1\n      0x6f9fb98a\n      eq\n      tag_4\n      jumpi\n      dup1\n      0xd0e30db0\n      eq\n      tag_5\n      jumpi\n    tag_1:\n      0x00\n      dup1\n      revert\n        /* \"contracts/Balancelou.sol\":84:127  mapping(address => uint256) public balances */\n    tag_2:\n      callvalue\n      dup1\n      iszero\n      tag_6\n      jumpi\n      0x00\n      dup1\n      revert\n    tag_6:\n      pop\n      tag_7\n      0x04\n      dup1\n      calldatasize\n      sub\n      dup2\n      add\n      swap1\n      tag_8\n      swap2\n      swap1\n      tag_9\n      jump\t// in\n    tag_8:\n      tag_10\n      jump\t// in\n    tag_7:\n      mload(0x40)\n      tag_11\n      swap2\n      swap1\n      tag_12\n      jump\t// in\n    tag_11:\n      mload(0x40)\n      dup1\n      swap2\n      sub\n      swap1\n      return\n        /* \"contracts/Balancelou.sol\":260:603  function withdraw(uint256 _amount) public {... */\n    tag_3:\n      callvalue\n      dup1\n      iszero\n      tag_13\n      jumpi\n      0x00\n      dup1\n      revert\n    tag_13:\n      pop\n      tag_14\n      0x04\n      dup1\n      calldatasize\n      sub\n      dup2\n      add\n      swap1\n      tag_15\n      swap2\n      swap1\n      tag_16\n      jump\t// in\n    tag_15:\n      tag_17\n      jump\t// in\n    tag_14:\n      stop\n        /* \"contracts/Balancelou.sol\":638:742  function getContractBalance() public view returns (uint) {... */\n    tag_4:\n      callvalue\n      dup1\n      iszero\n      tag_18\n      jumpi\n      0x00\n      dup1\n      revert\n    tag_18:\n      pop\n      tag_19\n      tag_20\n      jump\t// in\n    tag_19:\n      mload(0x40)\n      tag_21\n      swap2\n      swap1\n      tag_12\n      jump\t// in\n    tag_21:\n      mload(0x40)\n      dup1\n      swap2\n      sub\n      swap1\n      return\n        /* \"contracts/Balancelou.sol\":151:237  function deposit() public payable {... */\n    tag_5:\n      tag_22\n      tag_23\n      jump\t// in\n    tag_22:\n      stop\n        /* \"contracts/Balancelou.sol\":84:127  mapping(address => uint256) public balances */\n    tag_10:\n      mstore(0x20, 0x00)\n      dup1\n      0x00\n      mstore\n      keccak256(0x00, 0x40)\n      0x00\n      swap2\n      pop\n      swap1\n      pop\n      sload\n      dup2\n      jump\t// out\n        /* \"contracts/Balancelou.sol\":260:603  function withdraw(uint256 _amount) public {... */\n    tag_17:\n        /* \"contracts/Balancelou.sol\":345:352  _amount */\n      dup1\n        /* \"contracts/Balancelou.sol\":321:329  balances */\n      0x00\n        /* \"contracts/Balancelou.sol\":321:341  balances[msg.sender] */\n      dup1\n        /* \"contracts/Balancelou.sol\":330:340  msg.sender */\n      caller\n        /* \"contracts/Balancelou.sol\":321:341  balances[msg.sender] */\n      0xffffffffffffffffffffffffffffffffffffffff\n      and\n      0xffffffffffffffffffffffffffffffffffffffff\n      and\n      dup2\n      mstore\n      0x20\n      add\n      swap1\n      dup2\n      mstore\n      0x20\n      add\n      0x00\n      keccak256\n      sload\n        /* \"contracts/Balancelou.sol\":321:352  balances[msg.sender] >= _amount */\n      lt\n      iszero\n        /* \"contracts/Balancelou.sol\":313:377  require(balances[msg.sender] >= _amount, \"Insufficient balance\") */\n      tag_25\n      jumpi\n      mload(0x40)\n      0x08c379a000000000000000000000000000000000000000000000000000000000\n      dup2\n      mstore\n      0x04\n      add\n      tag_26\n      swap1\n      tag_27\n      jump\t// in\n    tag_26:\n      mload(0x40)\n      dup1\n      swap2\n      sub\n      swap1\n      revert\n    tag_25:\n        /* \"contracts/Balancelou.sol\":453:462  bool sent */\n      0x00\n        /* \"contracts/Balancelou.sol\":468:478  msg.sender */\n      caller\n        /* \"contracts/Balancelou.sol\":468:483  msg.sender.call */\n      0xffffffffffffffffffffffffffffffffffffffff\n      and\n        /* \"contracts/Balancelou.sol\":491:498  _amount */\n      dup3\n        /* \"contracts/Balancelou.sol\":468:503  msg.sender.call{value: _amount}(\"\") */\n      mload(0x40)\n      tag_28\n      swap1\n      tag_29\n      jump\t// in\n    tag_28:\n      0x00\n      mload(0x40)\n      dup1\n      dup4\n      sub\n      dup2\n      dup6\n      dup8\n      gas\n      call\n      swap3\n      pop\n      pop\n      pop\n      returndatasize\n      dup1\n      0x00\n      dup2\n      eq\n      tag_32\n      jumpi\n      mload(0x40)\n      swap2\n      pop\n      and(add(returndatasize, 0x3f), not(0x1f))\n      dup3\n      add\n      0x40\n      mstore\n      returndatasize\n      dup3\n      mstore\n      returndatasize\n      0x00\n      0x20\n      dup5\n      add\n      returndatacopy\n      jump(tag_31)\n    tag_32:\n      0x60\n      swap2\n      pop\n    tag_31:\n      pop\n        /* \"contracts/Balancelou.sol\":452:503  (bool sent, ) = msg.sender.call{value: _amount}(\"\") */\n      pop\n      swap1\n      pop\n        /* \"contracts/Balancelou.sol\":522:526  sent */\n      dup1\n        /* \"contracts/Balancelou.sol\":514:551  require(sent, \"Failed to send Ether\") */\n      tag_33\n      jumpi\n      mload(0x40)\n      0x08c379a000000000000000000000000000000000000000000000000000000000\n      dup2\n      mstore\n      0x04\n      add\n      tag_34\n      swap1\n      tag_35\n      jump\t// in\n    tag_34:\n      mload(0x40)\n      dup1\n      swap2\n      sub\n      swap1\n      revert\n    tag_33:\n        /* \"contracts/Balancelou.sol\":588:595  _amount */\n      dup2\n        /* \"contracts/Balancelou.sol\":564:572  balances */\n      0x00\n        /* \"contracts/Balancelou.sol\":564:584  balances[msg.sender] */\n      dup1\n        /* \"contracts/Balancelou.sol\":573:583  msg.sender */\n      caller\n        /* \"contracts/Balancelou.sol\":564:584  balances[msg.sender] */\n      0xffffffffffffffffffffffffffffffffffffffff\n      and\n      0xffffffffffffffffffffffffffffffffffffffff\n      and\n      dup2\n      mstore\n      0x20\n      add\n      swap1\n      dup2\n      mstore\n      0x20\n      add\n      0x00\n      keccak256\n      0x00\n        /* \"contracts/Balancelou.sol\":564:595  balances[msg.sender] -= _amount */\n      dup3\n      dup3\n      sload\n      tag_36\n      swap2\n      swap1\n      tag_37\n      jump\t// in\n    tag_36:\n      swap3\n      pop\n      pop\n      dup2\n      swap1\n      sstore\n      pop\n        /* \"contracts/Balancelou.sol\":302:603  {... */\n      pop\n        /* \"contracts/Balancelou.sol\":260:603  function withdraw(uint256 _amount) public {... */\n      pop\n      jump\t// out\n        /* \"contracts/Balancelou.sol\":638:742  function getContractBalance() public view returns (uint) {... */\n    tag_20:\n        /* \"contracts/Balancelou.sol\":689:693  uint */\n      0x00\n        /* \"contracts/Balancelou.sol\":713:734  address(this).balance */\n      selfbalance\n        /* \"contracts/Balancelou.sol\":706:734  return address(this).balance */\n      swap1\n      pop\n        /* \"contracts/Balancelou.sol\":638:742  function getContractBalance() public view returns (uint) {... */\n      swap1\n      jump\t// out\n        /* \"contracts/Balancelou.sol\":151:237  function deposit() public payable {... */\n    tag_23:\n        /* \"contracts/Balancelou.sol\":220:229  msg.value */\n      callvalue\n        /* \"contracts/Balancelou.sol\":196:204  balances */\n      0x00\n        /* \"contracts/Balancelou.sol\":196:216  balances[msg.sender] */\n      dup1\n        /* \"contracts/Balancelou.sol\":205:215  msg.sender */\n      caller\n        /* \"contracts/Balancelou.sol\":196:216  balances[msg.sender] */\n      0xffffffffffffffffffffffffffffffffffffffff\n      and\n      0xffffffffffffffffffffffffffffffffffffffff\n      and\n      dup2\n      mstore\n      0x20\n      add\n      swap1\n      dup2\n      mstore\n      0x20\n      add\n      0x00\n      keccak256\n      0x00\n        /* \"contracts/Balancelou.sol\":196:229  balances[msg.sender] += msg.value */\n      dup3\n      dup3\n      sload\n      tag_40\n      swap2\n      swap1\n      tag_41\n      jump\t// in\n    tag_40:\n      swap3\n      pop\n      pop\n      dup2\n      swap1\n      sstore\n      pop\n        /* \"contracts/Balancelou.sol\":151:237  function deposit() public payable {... */\n      jump\t// out\n        /* \"#utility.yul\":88:205   */\n    tag_43:\n        /* \"#utility.yul\":197:198   */\n      0x00\n        /* \"#utility.yul\":194:195   */\n      dup1\n        /* \"#utility.yul\":187:199   */\n      revert\n        /* \"#utility.yul\":334:460   */\n    tag_45:\n        /* \"#utility.yul\":371:378   */\n      0x00\n        /* \"#utility.yul\":411:453   */\n      0xffffffffffffffffffffffffffffffffffffffff\n        /* \"#utility.yul\":404:409   */\n      dup3\n        /* \"#utility.yul\":400:454   */\n      and\n        /* \"#utility.yul\":389:454   */\n      swap1\n      pop\n        /* \"#utility.yul\":334:460   */\n      swap2\n      swap1\n      pop\n      jump\t// out\n        /* \"#utility.yul\":466:562   */\n    tag_46:\n        /* \"#utility.yul\":503:510   */\n      0x00\n        /* \"#utility.yul\":532:556   */\n      tag_68\n        /* \"#utility.yul\":550:555   */\n      dup3\n        /* \"#utility.yul\":532:556   */\n      tag_45\n      jump\t// in\n    tag_68:\n        /* \"#utility.yul\":521:556   */\n      swap1\n      pop\n        /* \"#utility.yul\":466:562   */\n      swap2\n      swap1\n      pop\n      jump\t// out\n        /* \"#utility.yul\":568:690   */\n    tag_47:\n        /* \"#utility.yul\":641:665   */\n      tag_70\n        /* \"#utility.yul\":659:664   */\n      dup2\n        /* \"#utility.yul\":641:665   */\n      tag_46\n      jump\t// in\n    tag_70:\n        /* \"#utility.yul\":634:639   */\n      dup2\n        /* \"#utility.yul\":631:666   */\n      eq\n        /* \"#utility.yul\":621:684   */\n      tag_71\n      jumpi\n        /* \"#utility.yul\":680:681   */\n      0x00\n        /* \"#utility.yul\":677:678   */\n      dup1\n        /* \"#utility.yul\":670:682   */\n      revert\n        /* \"#utility.yul\":621:684   */\n    tag_71:\n        /* \"#utility.yul\":568:690   */\n      pop\n      jump\t// out\n        /* \"#utility.yul\":696:835   */\n    tag_48:\n        /* \"#utility.yul\":742:747   */\n      0x00\n        /* \"#utility.yul\":780:786   */\n      dup2\n        /* \"#utility.yul\":767:787   */\n      calldataload\n        /* \"#utility.yul\":758:787   */\n      swap1\n      pop\n        /* \"#utility.yul\":796:829   */\n      tag_73\n        /* \"#utility.yul\":823:828   */\n      dup2\n        /* \"#utility.yul\":796:829   */\n      tag_47\n      jump\t// in\n    tag_73:\n        /* \"#utility.yul\":696:835   */\n      swap3\n      swap2\n      pop\n      pop\n      jump\t// out\n        /* \"#utility.yul\":841:1170   */\n    tag_9:\n        /* \"#utility.yul\":900:906   */\n      0x00\n        /* \"#utility.yul\":949:951   */\n      0x20\n        /* \"#utility.yul\":937:946   */\n      dup3\n        /* \"#utility.yul\":928:935   */\n      dup5\n        /* \"#utility.yul\":924:947   */\n      sub\n        /* \"#utility.yul\":920:952   */\n      slt\n        /* \"#utility.yul\":917:1036   */\n      iszero\n      tag_75\n      jumpi\n        /* \"#utility.yul\":955:1034   */\n      tag_76\n      tag_43\n      jump\t// in\n    tag_76:\n        /* \"#utility.yul\":917:1036   */\n    tag_75:\n        /* \"#utility.yul\":1075:1076   */\n      0x00\n        /* \"#utility.yul\":1100:1153   */\n      tag_77\n        /* \"#utility.yul\":1145:1152   */\n      dup5\n        /* \"#utility.yul\":1136:1142   */\n      dup3\n        /* \"#utility.yul\":1125:1134   */\n      dup6\n        /* \"#utility.yul\":1121:1143   */\n      add\n        /* \"#utility.yul\":1100:1153   */\n      tag_48\n      jump\t// in\n    tag_77:\n        /* \"#utility.yul\":1090:1153   */\n      swap2\n      pop\n        /* \"#utility.yul\":1046:1163   */\n      pop\n        /* \"#utility.yul\":841:1170   */\n      swap3\n      swap2\n      pop\n      pop\n      jump\t// out\n        /* \"#utility.yul\":1176:1253   */\n    tag_49:\n        /* \"#utility.yul\":1213:1220   */\n      0x00\n        /* \"#utility.yul\":1242:1247   */\n      dup2\n        /* \"#utility.yul\":1231:1247   */\n      swap1\n      pop\n        /* \"#utility.yul\":1176:1253   */\n      swap2\n      swap1\n      pop\n      jump\t// out\n        /* \"#utility.yul\":1259:1377   */\n    tag_50:\n        /* \"#utility.yul\":1346:1370   */\n      tag_80\n        /* \"#utility.yul\":1364:1369   */\n      dup2\n        /* \"#utility.yul\":1346:1370   */\n      tag_49\n      jump\t// in\n    tag_80:\n        /* \"#utility.yul\":1341:1344   */\n      dup3\n        /* \"#utility.yul\":1334:1371   */\n      mstore\n        /* \"#utility.yul\":1259:1377   */\n      pop\n      pop\n      jump\t// out\n        /* \"#utility.yul\":1383:1605   */\n    tag_12:\n        /* \"#utility.yul\":1476:1480   */\n      0x00\n        /* \"#utility.yul\":1514:1516   */\n      0x20\n        /* \"#utility.yul\":1503:1512   */\n      dup3\n        /* \"#utility.yul\":1499:1517   */\n      add\n        /* \"#utility.yul\":1491:1517   */\n      swap1\n      pop\n        /* \"#utility.yul\":1527:1598   */\n      tag_82\n        /* \"#utility.yul\":1595:1596   */\n      0x00\n        /* \"#utility.yul\":1584:1593   */\n      dup4\n        /* \"#utility.yul\":1580:1597   */\n      add\n        /* \"#utility.yul\":1571:1577   */\n      dup5\n        /* \"#utility.yul\":1527:1598   */\n      tag_50\n      jump\t// in\n    tag_82:\n        /* \"#utility.yul\":1383:1605   */\n      swap3\n      swap2\n      pop\n      pop\n      jump\t// out\n        /* \"#utility.yul\":1611:1733   */\n    tag_51:\n        /* \"#utility.yul\":1684:1708   */\n      tag_84\n        /* \"#utility.yul\":1702:1707   */\n      dup2\n        /* \"#utility.yul\":1684:1708   */\n      tag_49\n      jump\t// in\n    tag_84:\n        /* \"#utility.yul\":1677:1682   */\n      dup2\n        /* \"#utility.yul\":1674:1709   */\n      eq\n        /* \"#utility.yul\":1664:1727   */\n      tag_85\n      jumpi\n        /* \"#utility.yul\":1723:1724   */\n      0x00\n        /* \"#utility.yul\":1720:1721   */\n      dup1\n        /* \"#utility.yul\":1713:1725   */\n      revert\n        /* \"#utility.yul\":1664:1727   */\n    tag_85:\n        /* \"#utility.yul\":1611:1733   */\n      pop\n      jump\t// out\n        /* \"#utility.yul\":1739:1878   */\n    tag_52:\n        /* \"#utility.yul\":1785:1790   */\n      0x00\n        /* \"#utility.yul\":1823:1829   */\n      dup2\n        /* \"#utility.yul\":1810:1830   */\n      calldataload\n        /* \"#utility.yul\":1801:1830   */\n      swap1\n      pop\n        /* \"#utility.yul\":1839:1872   */\n      tag_87\n        /* \"#utility.yul\":1866:1871   */\n      dup2\n        /* \"#utility.yul\":1839:1872   */\n      tag_51\n      jump\t// in\n    tag_87:\n        /* \"#utility.yul\":1739:1878   */\n      swap3\n      swap2\n      pop\n      pop\n      jump\t// out\n        /* \"#utility.yul\":1884:2213   */\n    tag_16:\n        /* \"#utility.yul\":1943:1949   */\n      0x00\n        /* \"#utility.yul\":1992:1994   */\n      0x20\n        /* \"#utility.yul\":1980:1989   */\n      dup3\n        /* \"#utility.yul\":1971:1978   */\n      dup5\n        /* \"#utility.yul\":1967:1990   */\n      sub\n        /* \"#utility.yul\":1963:1995   */\n      slt\n        /* \"#utility.yul\":1960:2079   */\n      iszero\n      tag_89\n      jumpi\n        /* \"#utility.yul\":1998:2077   */\n      tag_90\n      tag_43\n      jump\t// in\n    tag_90:\n        /* \"#utility.yul\":1960:2079   */\n    tag_89:\n        /* \"#utility.yul\":2118:2119   */\n      0x00\n        /* \"#utility.yul\":2143:2196   */\n      tag_91\n        /* \"#utility.yul\":2188:2195   */\n      dup5\n        /* \"#utility.yul\":2179:2185   */\n      dup3\n        /* \"#utility.yul\":2168:2177   */\n      dup6\n        /* \"#utility.yul\":2164:2186   */\n      add\n        /* \"#utility.yul\":2143:2196   */\n      tag_52\n      jump\t// in\n    tag_91:\n        /* \"#utility.yul\":2133:2196   */\n      swap2\n      pop\n        /* \"#utility.yul\":2089:2206   */\n      pop\n        /* \"#utility.yul\":1884:2213   */\n      swap3\n      swap2\n      pop\n      pop\n      jump\t// out\n        /* \"#utility.yul\":2219:2388   */\n    tag_53:\n        /* \"#utility.yul\":2303:2314   */\n      0x00\n        /* \"#utility.yul\":2337:2343   */\n      dup3\n        /* \"#utility.yul\":2332:2335   */\n      dup3\n        /* \"#utility.yul\":2325:2344   */\n      mstore\n        /* \"#utility.yul\":2377:2381   */\n      0x20\n        /* \"#utility.yul\":2372:2375   */\n      dup3\n        /* \"#utility.yul\":2368:2382   */\n      add\n        /* \"#utility.yul\":2353:2382   */\n      swap1\n      pop\n        /* \"#utility.yul\":2219:2388   */\n      swap3\n      swap2\n      pop\n      pop\n      jump\t// out\n        /* \"#utility.yul\":2394:2564   */\n    tag_54:\n        /* \"#utility.yul\":2534:2556   */\n      0x496e73756666696369656e742062616c616e6365000000000000000000000000\n        /* \"#utility.yul\":2530:2531   */\n      0x00\n        /* \"#utility.yul\":2522:2528   */\n      dup3\n        /* \"#utility.yul\":2518:2532   */\n      add\n        /* \"#utility.yul\":2511:2557   */\n      mstore\n        /* \"#utility.yul\":2394:2564   */\n      pop\n      jump\t// out\n        /* \"#utility.yul\":2570:2936   */\n    tag_55:\n        /* \"#utility.yul\":2712:2715   */\n      0x00\n        /* \"#utility.yul\":2733:2800   */\n      tag_95\n        /* \"#utility.yul\":2797:2799   */\n      0x14\n        /* \"#utility.yul\":2792:2795   */\n      dup4\n        /* \"#utility.yul\":2733:2800   */\n      tag_53\n      jump\t// in\n    tag_95:\n        /* \"#utility.yul\":2726:2800   */\n      swap2\n      pop\n        /* \"#utility.yul\":2809:2902   */\n      tag_96\n        /* \"#utility.yul\":2898:2901   */\n      dup3\n        /* \"#utility.yul\":2809:2902   */\n      tag_54\n      jump\t// in\n    tag_96:\n        /* \"#utility.yul\":2927:2929   */\n      0x20\n        /* \"#utility.yul\":2922:2925   */\n      dup3\n        /* \"#utility.yul\":2918:2930   */\n      add\n        /* \"#utility.yul\":2911:2930   */\n      swap1\n      pop\n        /* \"#utility.yul\":2570:2936   */\n      swap2\n      swap1\n      pop\n      jump\t// out\n        /* \"#utility.yul\":2942:3361   */\n    tag_27:\n        /* \"#utility.yul\":3108:3112   */\n      0x00\n        /* \"#utility.yul\":3146:3148   */\n      0x20\n        /* \"#utility.yul\":3135:3144   */\n      dup3\n        /* \"#utility.yul\":3131:3149   */\n      add\n        /* \"#utility.yul\":3123:3149   */\n      swap1\n      pop\n        /* \"#utility.yul\":3195:3204   */\n      dup2\n        /* \"#utility.yul\":3189:3193   */\n      dup2\n        /* \"#utility.yul\":3185:3205   */\n      sub\n        /* \"#utility.yul\":3181:3182   */\n      0x00\n        /* \"#utility.yul\":3170:3179   */\n      dup4\n        /* \"#utility.yul\":3166:3183   */\n      add\n        /* \"#utility.yul\":3159:3206   */\n      mstore\n        /* \"#utility.yul\":3223:3354   */\n      tag_98\n        /* \"#utility.yul\":3349:3353   */\n      dup2\n        /* \"#utility.yul\":3223:3354   */\n      tag_55\n      jump\t// in\n    tag_98:\n        /* \"#utility.yul\":3215:3354   */\n      swap1\n      pop\n        /* \"#utility.yul\":2942:3361   */\n      swap2\n      swap1\n      pop\n      jump\t// out\n        /* \"#utility.yul\":3367:3514   */\n    tag_56:\n        /* \"#utility.yul\":3468:3479   */\n      0x00\n        /* \"#utility.yul\":3505:3508   */\n      dup2\n        /* \"#utility.yul\":3490:3508   */\n      swap1\n      pop\n        /* \"#utility.yul\":3367:3514   */\n      swap3\n      swap2\n      pop\n      pop\n      jump\t// out\n        /* \"#utility.yul\":3520:3634   */\n    tag_57:\n      pop\n      jump\t// out\n        /* \"#utility.yul\":3640:4038   */\n    tag_58:\n        /* \"#utility.yul\":3799:3802   */\n      0x00\n        /* \"#utility.yul\":3820:3903   */\n      tag_102\n        /* \"#utility.yul\":3901:3902   */\n      0x00\n        /* \"#utility.yul\":3896:3899   */\n      dup4\n        /* \"#utility.yul\":3820:3903   */\n      tag_56\n      jump\t// in\n    tag_102:\n        /* \"#utility.yul\":3813:3903   */\n      swap2\n      pop\n        /* \"#utility.yul\":3912:4005   */\n      tag_103\n        /* \"#utility.yul\":4001:4004   */\n      dup3\n        /* \"#utility.yul\":3912:4005   */\n      tag_57\n      jump\t// in\n    tag_103:\n        /* \"#utility.yul\":4030:4031   */\n      0x00\n        /* \"#utility.yul\":4025:4028   */\n      dup3\n        /* \"#utility.yul\":4021:4032   */\n      add\n        /* \"#utility.yul\":4014:4032   */\n      swap1\n      pop\n        /* \"#utility.yul\":3640:4038   */\n      swap2\n      swap1\n      pop\n      jump\t// out\n        /* \"#utility.yul\":4044:4423   */\n    tag_29:\n        /* \"#utility.yul\":4228:4231   */\n      0x00\n        /* \"#utility.yul\":4250:4397   */\n      tag_105\n        /* \"#utility.yul\":4393:4396   */\n      dup3\n        /* \"#utility.yul\":4250:4397   */\n      tag_58\n      jump\t// in\n    tag_105:\n        /* \"#utility.yul\":4243:4397   */\n      swap2\n      pop\n        /* \"#utility.yul\":4414:4417   */\n      dup2\n        /* \"#utility.yul\":4407:4417   */\n      swap1\n      pop\n        /* \"#utility.yul\":4044:4423   */\n      swap2\n      swap1\n      pop\n      jump\t// out\n        /* \"#utility.yul\":4429:4599   */\n    tag_59:\n        /* \"#utility.yul\":4569:4591   */\n      0x4661696c656420746f2073656e64204574686572000000000000000000000000\n        /* \"#utility.yul\":4565:4566   */\n      0x00\n        /* \"#utility.yul\":4557:4563   */\n      dup3\n        /* \"#utility.yul\":4553:4567   */\n      add\n        /* \"#utility.yul\":4546:4592   */\n      mstore\n        /* \"#utility.yul\":4429:4599   */\n      pop\n      jump\t// out\n        /* \"#utility.yul\":4605:4971   */\n    tag_60:\n        /* \"#utility.yul\":4747:4750   */\n      0x00\n        /* \"#utility.yul\":4768:4835   */\n      tag_108\n        /* \"#utility.yul\":4832:4834   */\n      0x14\n        /* \"#utility.yul\":4827:4830   */\n      dup4\n        /* \"#utility.yul\":4768:4835   */\n      tag_53\n      jump\t// in\n    tag_108:\n        /* \"#utility.yul\":4761:4835   */\n      swap2\n      pop\n        /* \"#utility.yul\":4844:4937   */\n      tag_109\n        /* \"#utility.yul\":4933:4936   */\n      dup3\n        /* \"#utility.yul\":4844:4937   */\n      tag_59\n      jump\t// in\n    tag_109:\n        /* \"#utility.yul\":4962:4964   */\n      0x20\n        /* \"#utility.yul\":4957:4960   */\n      dup3\n        /* \"#utility.yul\":4953:4965   */\n      add\n        /* \"#utility.yul\":4946:4965   */\n      swap1\n      pop\n        /* \"#utility.yul\":4605:4971   */\n      swap2\n      swap1\n      pop\n      jump\t// out\n        /* \"#utility.yul\":4977:5396   */\n    tag_35:\n        /* \"#utility.yul\":5143:5147   */\n      0x00\n        /* \"#utility.yul\":5181:5183   */\n      0x20\n        /* \"#utility.yul\":5170:5179   */\n      dup3\n        /* \"#utility.yul\":5166:5184   */\n      add\n        /* \"#utility.yul\":5158:5184   */\n      swap1\n      pop\n        /* \"#utility.yul\":5230:5239   */\n      dup2\n        /* \"#utility.yul\":5224:5228   */\n      dup2\n        /* \"#utility.yul\":5220:5240   */\n      sub\n        /* \"#utility.yul\":5216:5217   */\n      0x00\n        /* \"#utility.yul\":5205:5214   */\n      dup4\n        /* \"#utility.yul\":5201:5218   */\n      add\n        /* \"#utility.yul\":5194:5241   */\n      mstore\n        /* \"#utility.yul\":5258:5389   */\n      tag_111\n        /* \"#utility.yul\":5384:5388   */\n      dup2\n        /* \"#utility.yul\":5258:5389   */\n      tag_60\n      jump\t// in\n    tag_111:\n        /* \"#utility.yul\":5250:5389   */\n      swap1\n      pop\n        /* \"#utility.yul\":4977:5396   */\n      swap2\n      swap1\n      pop\n      jump\t// out\n        /* \"#utility.yul\":5402:5582   */\n    tag_61:\n        /* \"#utility.yul\":5450:5527   */\n      0x4e487b7100000000000000000000000000000000000000000000000000000000\n        /* \"#utility.yul\":5447:5448   */\n      0x00\n        /* \"#utility.yul\":5440:5528   */\n      mstore\n        /* \"#utility.yul\":5547:5551   */\n      0x11\n        /* \"#utility.yul\":5544:5545   */\n      0x04\n        /* \"#utility.yul\":5537:5552   */\n      mstore\n        /* \"#utility.yul\":5571:5575   */\n      0x24\n        /* \"#utility.yul\":5568:5569   */\n      0x00\n        /* \"#utility.yul\":5561:5576   */\n      revert\n        /* \"#utility.yul\":5588:5782   */\n    tag_37:\n        /* \"#utility.yul\":5628:5632   */\n      0x00\n        /* \"#utility.yul\":5648:5668   */\n      tag_114\n        /* \"#utility.yul\":5666:5667   */\n      dup3\n        /* \"#utility.yul\":5648:5668   */\n      tag_49\n      jump\t// in\n    tag_114:\n        /* \"#utility.yul\":5643:5668   */\n      swap2\n      pop\n        /* \"#utility.yul\":5682:5702   */\n      tag_115\n        /* \"#utility.yul\":5700:5701   */\n      dup4\n        /* \"#utility.yul\":5682:5702   */\n      tag_49\n      jump\t// in\n    tag_115:\n        /* \"#utility.yul\":5677:5702   */\n      swap3\n      pop\n        /* \"#utility.yul\":5726:5727   */\n      dup3\n        /* \"#utility.yul\":5723:5724   */\n      dup3\n        /* \"#utility.yul\":5719:5728   */\n      sub\n        /* \"#utility.yul\":5711:5728   */\n      swap1\n      pop\n        /* \"#utility.yul\":5750:5751   */\n      dup2\n        /* \"#utility.yul\":5744:5748   */\n      dup2\n        /* \"#utility.yul\":5741:5752   */\n      gt\n        /* \"#utility.yul\":5738:5775   */\n      iszero\n      tag_116\n      jumpi\n        /* \"#utility.yul\":5755:5773   */\n      tag_117\n      tag_61\n      jump\t// in\n    tag_117:\n        /* \"#utility.yul\":5738:5775   */\n    tag_116:\n        /* \"#utility.yul\":5588:5782   */\n      swap3\n      swap2\n      pop\n      pop\n      jump\t// out\n        /* \"#utility.yul\":5788:5979   */\n    tag_41:\n        /* \"#utility.yul\":5828:5831   */\n      0x00\n        /* \"#utility.yul\":5847:5867   */\n      tag_119\n        /* \"#utility.yul\":5865:5866   */\n      dup3\n        /* \"#utility.yul\":5847:5867   */\n      tag_49\n      jump\t// in\n    tag_119:\n        /* \"#utility.yul\":5842:5867   */\n      swap2\n      pop\n        /* \"#utility.yul\":5881:5901   */\n      tag_120\n        /* \"#utility.yul\":5899:5900   */\n      dup4\n        /* \"#utility.yul\":5881:5901   */\n      tag_49\n      jump\t// in\n    tag_120:\n        /* \"#utility.yul\":5876:5901   */\n      swap3\n      pop\n        /* \"#utility.yul\":5924:5925   */\n      dup3\n        /* \"#utility.yul\":5921:5922   */\n      dup3\n        /* \"#utility.yul\":5917:5926   */\n      add\n        /* \"#utility.yul\":5910:5926   */\n      swap1\n      pop\n        /* \"#utility.yul\":5945:5948   */\n      dup1\n        /* \"#utility.yul\":5942:5943   */\n      dup3\n        /* \"#utility.yul\":5939:5949   */\n      gt\n        /* \"#utility.yul\":5936:5972   */\n      iszero\n      tag_121\n      jumpi\n        /* \"#utility.yul\":5952:5970   */\n      tag_122\n      tag_61\n      jump\t// in\n    tag_122:\n        /* \"#utility.yul\":5936:5972   */\n    tag_121:\n        /* \"#utility.yul\":5788:5979   */\n      swap3\n      swap2\n      pop\n      pop\n      jump\t// out\n\n    auxdata: 0xa264697066735822122004c4a4f1540556198ff66bb20b3538692199ac41cb74b88a7348bfda0558898b64736f6c63430008140033\n}\n",
				"bytecode": {
					"linkReferences": {},
					"object": "608060405234801561000f575f80fd5b506105bf8061001d5f395ff3fe60806040526004361061003e575f3560e01c806327e235e3146100425780632e1a7d4d1461007e5780636f9fb98a146100a6578063d0e30db0146100d0575b5f80fd5b34801561004d575f80fd5b5061006860048036038101906100639190610324565b6100da565b6040516100759190610367565b60405180910390f35b348015610089575f80fd5b506100a4600480360381019061009f91906103aa565b6100ee565b005b3480156100b1575f80fd5b506100ba61026b565b6040516100c79190610367565b60405180910390f35b6100d8610272565b005b5f602052805f5260405f205f915090505481565b805f803373ffffffffffffffffffffffffffffffffffffffff1673ffffffffffffffffffffffffffffffffffffffff1681526020019081526020015f2054101561016d576040517f08c379a00000000000000000000000000000000000000000000000000000000081526004016101649061042f565b60405180910390fd5b5f3373ffffffffffffffffffffffffffffffffffffffff16826040516101929061047a565b5f6040518083038185875af1925050503d805f81146101cc576040519150601f19603f3d011682016040523d82523d5f602084013e6101d1565b606091505b5050905080610215576040517f08c379a000000000000000000000000000000000000000000000000000000000815260040161020c906104d8565b60405180910390fd5b815f803373ffffffffffffffffffffffffffffffffffffffff1673ffffffffffffffffffffffffffffffffffffffff1681526020019081526020015f205f8282546102609190610523565b925050819055505050565b5f47905090565b345f803373ffffffffffffffffffffffffffffffffffffffff1673ffffffffffffffffffffffffffffffffffffffff1681526020019081526020015f205f8282546102bd9190610556565b92505081905550565b5f80fd5b5f73ffffffffffffffffffffffffffffffffffffffff82169050919050565b5f6102f3826102ca565b9050919050565b610303816102e9565b811461030d575f80fd5b50565b5f8135905061031e816102fa565b92915050565b5f60208284031215610339576103386102c6565b5b5f61034684828501610310565b91505092915050565b5f819050919050565b6103618161034f565b82525050565b5f60208201905061037a5f830184610358565b92915050565b6103898161034f565b8114610393575f80fd5b50565b5f813590506103a481610380565b92915050565b5f602082840312156103bf576103be6102c6565b5b5f6103cc84828501610396565b91505092915050565b5f82825260208201905092915050565b7f496e73756666696369656e742062616c616e63650000000000000000000000005f82015250565b5f6104196014836103d5565b9150610424826103e5565b602082019050919050565b5f6020820190508181035f8301526104468161040d565b9050919050565b5f81905092915050565b50565b5f6104655f8361044d565b915061047082610457565b5f82019050919050565b5f6104848261045a565b9150819050919050565b7f4661696c656420746f2073656e642045746865720000000000000000000000005f82015250565b5f6104c26014836103d5565b91506104cd8261048e565b602082019050919050565b5f6020820190508181035f8301526104ef816104b6565b9050919050565b7f4e487b71000000000000000000000000000000000000000000000000000000005f52601160045260245ffd5b5f61052d8261034f565b91506105388361034f565b92508282039050818111156105505761054f6104f6565b5b92915050565b5f6105608261034f565b915061056b8361034f565b9250828201905080821115610583576105826104f6565b5b9291505056fea264697066735822122004c4a4f1540556198ff66bb20b3538692199ac41cb74b88a7348bfda0558898b64736f6c63430008140033",
					"opcodes": "PUSH1 0x80 PUSH1 0x40 MSTORE CALLVALUE DUP1 ISZERO PUSH2 0xF JUMPI PUSH0 DUP1 REVERT JUMPDEST POP PUSH2 0x5BF DUP1 PUSH2 0x1D PUSH0 CODECOPY PUSH0 RETURN INVALID PUSH1 0x80 PUSH1 0x40 MSTORE PUSH1 0x4 CALLDATASIZE LT PUSH2 0x3E JUMPI PUSH0 CALLDATALOAD PUSH1 0xE0 SHR DUP1 PUSH4 0x27E235E3 EQ PUSH2 0x42 JUMPI DUP1 PUSH4 0x2E1A7D4D EQ PUSH2 0x7E JUMPI DUP1 PUSH4 0x6F9FB98A EQ PUSH2 0xA6 JUMPI DUP1 PUSH4 0xD0E30DB0 EQ PUSH2 0xD0 JUMPI JUMPDEST PUSH0 DUP1 REVERT JUMPDEST CALLVALUE DUP1 ISZERO PUSH2 0x4D JUMPI PUSH0 DUP1 REVERT JUMPDEST POP PUSH2 0x68 PUSH1 0x4 DUP1 CALLDATASIZE SUB DUP2 ADD SWAP1 PUSH2 0x63 SWAP2 SWAP1 PUSH2 0x324 JUMP JUMPDEST PUSH2 0xDA JUMP JUMPDEST PUSH1 0x40 MLOAD PUSH2 0x75 SWAP2 SWAP1 PUSH2 0x367 JUMP JUMPDEST PUSH1 0x40 MLOAD DUP1 SWAP2 SUB SWAP1 RETURN JUMPDEST CALLVALUE DUP1 ISZERO PUSH2 0x89 JUMPI PUSH0 DUP1 REVERT JUMPDEST POP PUSH2 0xA4 PUSH1 0x4 DUP1 CALLDATASIZE SUB DUP2 ADD SWAP1 PUSH2 0x9F SWAP2 SWAP1 PUSH2 0x3AA JUMP JUMPDEST PUSH2 0xEE JUMP JUMPDEST STOP JUMPDEST CALLVALUE DUP1 ISZERO PUSH2 0xB1 JUMPI PUSH0 DUP1 REVERT JUMPDEST POP PUSH2 0xBA PUSH2 0x26B JUMP JUMPDEST PUSH1 0x40 MLOAD PUSH2 0xC7 SWAP2 SWAP1 PUSH2 0x367 JUMP JUMPDEST PUSH1 0x40 MLOAD DUP1 SWAP2 SUB SWAP1 RETURN JUMPDEST PUSH2 0xD8 PUSH2 0x272 JUMP JUMPDEST STOP JUMPDEST PUSH0 PUSH1 0x20 MSTORE DUP1 PUSH0 MSTORE PUSH1 0x40 PUSH0 KECCAK256 PUSH0 SWAP2 POP SWAP1 POP SLOAD DUP2 JUMP JUMPDEST DUP1 PUSH0 DUP1 CALLER PUSH20 0xFFFFFFFFFFFFFFFFFFFFFFFFFFFFFFFFFFFFFFFF AND PUSH20 0xFFFFFFFFFFFFFFFFFFFFFFFFFFFFFFFFFFFFFFFF AND DUP2 MSTORE PUSH1 0x20 ADD SWAP1 DUP2 MSTORE PUSH1 0x20 ADD PUSH0 KECCAK256 SLOAD LT ISZERO PUSH2 0x16D JUMPI PUSH1 0x40 MLOAD PUSH32 0x8C379A000000000000000000000000000000000000000000000000000000000 DUP2 MSTORE PUSH1 0x4 ADD PUSH2 0x164 SWAP1 PUSH2 0x42F JUMP JUMPDEST PUSH1 0x40 MLOAD DUP1 SWAP2 SUB SWAP1 REVERT JUMPDEST PUSH0 CALLER PUSH20 0xFFFFFFFFFFFFFFFFFFFFFFFFFFFFFFFFFFFFFFFF AND DUP3 PUSH1 0x40 MLOAD PUSH2 0x192 SWAP1 PUSH2 0x47A JUMP JUMPDEST PUSH0 PUSH1 0x40 MLOAD DUP1 DUP4 SUB DUP2 DUP6 DUP8 GAS CALL SWAP3 POP POP POP RETURNDATASIZE DUP1 PUSH0 DUP2 EQ PUSH2 0x1CC JUMPI PUSH1 0x40 MLOAD SWAP2 POP PUSH1 0x1F NOT PUSH1 0x3F RETURNDATASIZE ADD AND DUP3 ADD PUSH1 0x40 MSTORE RETURNDATASIZE DUP3 MSTORE RETURNDATASIZE PUSH0 PUSH1 0x20 DUP5 ADD RETURNDATACOPY PUSH2 0x1D1 JUMP JUMPDEST PUSH1 0x60 SWAP2 POP JUMPDEST POP POP SWAP1 POP DUP1 PUSH2 0x215 JUMPI PUSH1 0x40 MLOAD PUSH32 0x8C379A000000000000000000000000000000000000000000000000000000000 DUP2 MSTORE PUSH1 0x4 ADD PUSH2 0x20C SWAP1 PUSH2 0x4D8 JUMP JUMPDEST PUSH1 0x40 MLOAD DUP1 SWAP2 SUB SWAP1 REVERT JUMPDEST DUP2 PUSH0 DUP1 CALLER PUSH20 0xFFFFFFFFFFFFFFFFFFFFFFFFFFFFFFFFFFFFFFFF AND PUSH20 0xFFFFFFFFFFFFFFFFFFFFFFFFFFFFFFFFFFFFFFFF AND DUP2 MSTORE PUSH1 0x20 ADD SWAP1 DUP2 MSTORE PUSH1 0x20 ADD PUSH0 KECCAK256 PUSH0 DUP3 DUP3 SLOAD PUSH2 0x260 SWAP2 SWAP1 PUSH2 0x523 JUMP JUMPDEST SWAP3 POP POP DUP2 SWAP1 SSTORE POP POP POP JUMP JUMPDEST PUSH0 SELFBALANCE SWAP1 POP SWAP1 JUMP JUMPDEST CALLVALUE PUSH0 DUP1 CALLER PUSH20 0xFFFFFFFFFFFFFFFFFFFFFFFFFFFFFFFFFFFFFFFF AND PUSH20 0xFFFFFFFFFFFFFFFFFFFFFFFFFFFFFFFFFFFFFFFF AND DUP2 MSTORE PUSH1 0x20 ADD SWAP1 DUP2 MSTORE PUSH1 0x20 ADD PUSH0 KECCAK256 PUSH0 DUP3 DUP3 SLOAD PUSH2 0x2BD SWAP2 SWAP1 PUSH2 0x556 JUMP JUMPDEST SWAP3 POP POP DUP2 SWAP1 SSTORE POP JUMP JUMPDEST PUSH0 DUP1 REVERT JUMPDEST PUSH0 PUSH20 0xFFFFFFFFFFFFFFFFFFFFFFFFFFFFFFFFFFFFFFFF DUP3 AND SWAP1 POP SWAP2 SWAP1 POP JUMP JUMPDEST PUSH0 PUSH2 0x2F3 DUP3 PUSH2 0x2CA JUMP JUMPDEST SWAP1 POP SWAP2 SWAP1 POP JUMP JUMPDEST PUSH2 0x303 DUP2 PUSH2 0x2E9 JUMP JUMPDEST DUP2 EQ PUSH2 0x30D JUMPI PUSH0 DUP1 REVERT JUMPDEST POP JUMP JUMPDEST PUSH0 DUP2 CALLDATALOAD SWAP1 POP PUSH2 0x31E DUP2 PUSH2 0x2FA JUMP JUMPDEST SWAP3 SWAP2 POP POP JUMP JUMPDEST PUSH0 PUSH1 0x20 DUP3 DUP5 SUB SLT ISZERO PUSH2 0x339 JUMPI PUSH2 0x338 PUSH2 0x2C6 JUMP JUMPDEST JUMPDEST PUSH0 PUSH2 0x346 DUP5 DUP3 DUP6 ADD PUSH2 0x310 JUMP JUMPDEST SWAP2 POP POP SWAP3 SWAP2 POP POP JUMP JUMPDEST PUSH0 DUP2 SWAP1 POP SWAP2 SWAP1 POP JUMP JUMPDEST PUSH2 0x361 DUP2 PUSH2 0x34F JUMP JUMPDEST DUP3 MSTORE POP POP JUMP JUMPDEST PUSH0 PUSH1 0x20 DUP3 ADD SWAP1 POP PUSH2 0x37A PUSH0 DUP4 ADD DUP5 PUSH2 0x358 JUMP JUMPDEST SWAP3 SWAP2 POP POP JUMP JUMPDEST PUSH2 0x389 DUP2 PUSH2 0x34F JUMP JUMPDEST DUP2 EQ PUSH2 0x393 JUMPI PUSH0 DUP1 REVERT JUMPDEST POP JUMP JUMPDEST PUSH0 DUP2 CALLDATALOAD SWAP1 POP PUSH2 0x3A4 DUP2 PUSH2 0x380 JUMP JUMPDEST SWAP3 SWAP2 POP POP JUMP JUMPDEST PUSH0 PUSH1 0x20 DUP3 DUP5 SUB SLT ISZERO PUSH2 0x3BF JUMPI PUSH2 0x3BE PUSH2 0x2C6 JUMP JUMPDEST JUMPDEST PUSH0 PUSH2 0x3CC DUP5 DUP3 DUP6 ADD PUSH2 0x396 JUMP JUMPDEST SWAP2 POP POP SWAP3 SWAP2 POP POP JUMP JUMPDEST PUSH0 DUP3 DUP3 MSTORE PUSH1 0x20 DUP3 ADD SWAP1 POP SWAP3 SWAP2 POP POP JUMP JUMPDEST PUSH32 0x496E73756666696369656E742062616C616E6365000000000000000000000000 PUSH0 DUP3 ADD MSTORE POP JUMP JUMPDEST PUSH0 PUSH2 0x419 PUSH1 0x14 DUP4 PUSH2 0x3D5 JUMP JUMPDEST SWAP2 POP PUSH2 0x424 DUP3 PUSH2 0x3E5 JUMP JUMPDEST PUSH1 0x20 DUP3 ADD SWAP1 POP SWAP2 SWAP1 POP JUMP JUMPDEST PUSH0 PUSH1 0x20 DUP3 ADD SWAP1 POP DUP2 DUP2 SUB PUSH0 DUP4 ADD MSTORE PUSH2 0x446 DUP2 PUSH2 0x40D JUMP JUMPDEST SWAP1 POP SWAP2 SWAP1 POP JUMP JUMPDEST PUSH0 DUP2 SWAP1 POP SWAP3 SWAP2 POP POP JUMP JUMPDEST POP JUMP JUMPDEST PUSH0 PUSH2 0x465 PUSH0 DUP4 PUSH2 0x44D JUMP JUMPDEST SWAP2 POP PUSH2 0x470 DUP3 PUSH2 0x457 JUMP JUMPDEST PUSH0 DUP3 ADD SWAP1 POP SWAP2 SWAP1 POP JUMP JUMPDEST PUSH0 PUSH2 0x484 DUP3 PUSH2 0x45A JUMP JUMPDEST SWAP2 POP DUP2 SWAP1 POP SWAP2 SWAP1 POP JUMP JUMPDEST PUSH32 0x4661696C656420746F2073656E64204574686572000000000000000000000000 PUSH0 DUP3 ADD MSTORE POP JUMP JUMPDEST PUSH0 PUSH2 0x4C2 PUSH1 0x14 DUP4 PUSH2 0x3D5 JUMP JUMPDEST SWAP2 POP PUSH2 0x4CD DUP3 PUSH2 0x48E JUMP JUMPDEST PUSH1 0x20 DUP3 ADD SWAP1 POP SWAP2 SWAP1 POP JUMP JUMPDEST PUSH0 PUSH1 0x20 DUP3 ADD SWAP1 POP DUP2 DUP2 SUB PUSH0 DUP4 ADD MSTORE PUSH2 0x4EF DUP2 PUSH2 0x4B6 JUMP JUMPDEST SWAP1 POP SWAP2 SWAP1 POP JUMP JUMPDEST PUSH32 0x4E487B7100000000000000000000000000000000000000000000000000000000 PUSH0 MSTORE PUSH1 0x11 PUSH1 0x4 MSTORE PUSH1 0x24 PUSH0 REVERT JUMPDEST PUSH0 PUSH2 0x52D DUP3 PUSH2 0x34F JUMP JUMPDEST SWAP2 POP PUSH2 0x538 DUP4 PUSH2 0x34F JUMP JUMPDEST SWAP3 POP DUP3 DUP3 SUB SWAP1 POP DUP2 DUP2 GT ISZERO PUSH2 0x550 JUMPI PUSH2 0x54F PUSH2 0x4F6 JUMP JUMPDEST JUMPDEST SWAP3 SWAP2 POP POP JUMP JUMPDEST PUSH0 PUSH2 0x560 DUP3 PUSH2 0x34F JUMP JUMPDEST SWAP2 POP PUSH2 0x56B DUP4 PUSH2 0x34F JUMP JUMPDEST SWAP3 POP DUP3 DUP3 ADD SWAP1 POP DUP1 DUP3 GT ISZERO PUSH2 0x583 JUMPI PUSH2 0x582 PUSH2 0x4F6 JUMP JUMPDEST JUMPDEST SWAP3 SWAP2 POP POP JUMP INVALID LOG2 PUSH5 0x6970667358 0x22 SLT KECCAK256 DIV 0xC4 LOG4 CALL SLOAD SDIV JUMP NOT DUP16 0xF6 PUSH12 0xB20B3538692199AC41CB74B8 DUP11 PUSH20 0x48BFDA0558898B64736F6C634300081400330000 "
				},
				"gasEstimates": {
					"creation": {
						"codeDepositCost": "294200",
						"executionCost": "329",
						"totalCost": "294529"
					},
					"external": {
						"balances(address)": "2779",
						"deposit()": "infinite",
						"getContractBalance()": "356",
						"withdraw(uint256)": "infinite"
					}
				},
				"methodIdentifiers": {
					"balances(address)": "27e235e3",
					"deposit()": "d0e30db0",
					"getContractBalance()": "6f9fb98a",
					"withdraw(uint256)": "2e1a7d4d"
				}
			},
			"storageLayout": {
				"storage": [
					{
						"astId": 5,
						"contract": "contracts/Balancelou.sol:Balance",
						"label": "balances",
						"offset": 0,
						"slot": "0",
						"type": "t_mapping(t_address,t_uint256)"
					}
				],
				"types": {
					"t_address": {
						"encoding": "inplace",
						"label": "address",
						"numberOfBytes": "20"
					},
					"t_mapping(t_address,t_uint256)": {
						"encoding": "mapping",
						"key": "t_address",
						"label": "mapping(address => uint256)",
						"numberOfBytes": "32",
						"value": "t_uint256"
					},
					"t_uint256": {
						"encoding": "inplace",
						"label": "uint256",
						"numberOfBytes": "32"
					}
				}
			},
			"userdoc": {
				"kind": "user",
				"methods": {},
				"version": 1
			}
		}
	}
}